{
  "_format": "hh-sol-artifact-1",
  "contractName": "gasChallenge",
  "sourceName": "contracts/gasChallenge.sol",
  "abi": [
    {
      "inputs": [],
      "name": "getSumOfArray",
      "outputs": [
        {
          "internalType": "uint256",
          "name": "",
          "type": "uint256"
        }
      ],
      "stateMutability": "view",
      "type": "function"
    },
    {
      "inputs": [],
      "name": "notOptimizedFunction",
      "outputs": [],
      "stateMutability": "nonpayable",
      "type": "function"
    },
    {
      "inputs": [],
      "name": "optimizedFunction",
      "outputs": [],
      "stateMutability": "nonpayable",
      "type": "function"
    },
    {
      "inputs": [],
      "name": "optimizedFunction2",
      "outputs": [],
      "stateMutability": "nonpayable",
      "type": "function"
    }
  ],
  "bytecode": "0x6080604052604051806101400160405280600160ff168152602001600260ff168152602001600360ff168152602001600460ff168152602001600560ff168152602001600660ff168152602001600760ff168152602001600860ff168152602001600960ff168152602001600a60ff16815250600090600a610082929190610095565b5034801561008f57600080fd5b506100f7565b82600a81019282156100c9579160200282015b828111156100c8578251829060ff169055916020019190600101906100a8565b5b5090506100d691906100da565b5090565b5b808211156100f35760008160009055506001016100db565b5090565b6102d1806101066000396000f3fe608060405234801561001057600080fd5b506004361061004c5760003560e01c806368b5f223146100515780637ce418941461005b57806380d2c803146100655780638c80f45b14610083575b600080fd5b61005961008d565b005b6100636100c9565b005b61006d6100fd565b60405161007a91906101a6565b60405180910390f35b61008b61014e565b005b60005b600a8110156100c65760008082600a81106100ae576100ad6101c1565b5b018190555080806100be9061021f565b915050610090565b50565b60005b600a8110156100fa5760008082600a81106100ea576100e96101c1565b5b01819055508060010190506100cc565b50565b6000806000905060005b600a81101561014657600081600a8110610124576101236101c1565b5b0154826101319190610267565b9150808061013e9061021f565b915050610107565b508091505090565b60008061015b919061015d565b565b5080600a019061016d9190610170565b50565b5b80821115610189576000816000905550600101610171565b5090565b6000819050919050565b6101a08161018d565b82525050565b60006020820190506101bb6000830184610197565b92915050565b7f4e487b7100000000000000000000000000000000000000000000000000000000600052603260045260246000fd5b7f4e487b7100000000000000000000000000000000000000000000000000000000600052601160045260246000fd5b600061022a8261018d565b91507fffffffffffffffffffffffffffffffffffffffffffffffffffffffffffffffff820361025c5761025b6101f0565b5b600182019050919050565b60006102728261018d565b915061027d8361018d565b9250828201905080821115610295576102946101f0565b5b9291505056fea26469706673582212203b96f82ffe98f2b6517115c939b936fe2b722b32c767f2cb85d4a1c26c3705a664736f6c63430008120033",
  "linkReferences": {},
  "deployedLinkReferences": {}
}