{
  "_format": "hh-sol-artifact-1",
  "contractName": "gasChallenge",
  "sourceName": "contracts/gasChallenge.sol",
  "abi": [
    {
      "inputs": [],
      "name": "getSumOfArray",
      "outputs": [
        {
          "internalType": "uint256",
          "name": "",
          "type": "uint256"
        }
      ],
      "stateMutability": "view",
      "type": "function"
    },
    {
      "inputs": [],
      "name": "notOptimizedFunction",
      "outputs": [],
      "stateMutability": "nonpayable",
      "type": "function"
    },
    {
      "inputs": [],
      "name": "optimizedFunction",
      "outputs": [],
      "stateMutability": "nonpayable",
      "type": "function"
    },
    {
      "inputs": [],
      "name": "optimizedFunction2",
      "outputs": [],
      "stateMutability": "nonpayable",
      "type": "function"
    }
  ],
  "bytecode": "0x6080604052604051806101400160405280600160ff168152602001600260ff168152602001600360ff168152602001600460ff168152602001600560ff168152602001600660ff168152602001600760ff168152602001600860ff168152602001600960ff168152602001600a60ff16815250600090600a610082929190610095565b5034801561008f57600080fd5b506100f7565b82600a81019282156100c9579160200282015b828111156100c8578251829060ff169055916020019190600101906100a8565b5b5090506100d691906100da565b5090565b5b808211156100f35760008160009055506001016100db565b5090565b6102d7806101066000396000f3fe608060405234801561001057600080fd5b506004361061004c5760003560e01c806368b5f223146100515780637ce418941461005b57806380d2c803146100655780638c80f45b14610083575b600080fd5b61005961008d565b005b6100636100c9565b005b61006d610103565b60405161007a91906101ac565b60405180910390f35b61008b610154565b005b60005b600a8110156100c65760008082600a81106100ae576100ad6101c7565b5b018190555080806100be90610225565b915050610090565b50565b60005b600a8110156101005760008082600a81106100ea576100e96101c7565b5b0181905550806100f990610225565b90506100cc565b50565b6000806000905060005b600a81101561014c57600081600a811061012a576101296101c7565b5b015482610137919061026d565b9150808061014490610225565b91505061010d565b508091505090565b6000806101619190610163565b565b5080600a01906101739190610176565b50565b5b8082111561018f576000816000905550600101610177565b5090565b6000819050919050565b6101a681610193565b82525050565b60006020820190506101c1600083018461019d565b92915050565b7f4e487b7100000000000000000000000000000000000000000000000000000000600052603260045260246000fd5b7f4e487b7100000000000000000000000000000000000000000000000000000000600052601160045260246000fd5b600061023082610193565b91507fffffffffffffffffffffffffffffffffffffffffffffffffffffffffffffffff8203610262576102616101f6565b5b600182019050919050565b600061027882610193565b915061028383610193565b925082820190508082111561029b5761029a6101f6565b5b9291505056fea264697066735822122080df7b802b0cc32e1f135b45c09fa54f315aa00f35d60b285d582a55ed4e118664736f6c63430008120033",
  "linkReferences": {},
  "deployedLinkReferences": {}
}